{
  "contractName": "Attack",
  "abi": [
    {
      "constant": true,
      "inputs": [],
      "name": "etherStore",
      "outputs": [
        {
          "name": "",
          "type": "address"
        }
      ],
      "payable": false,
      "stateMutability": "view",
      "type": "function"
    },
    {
      "inputs": [
        {
          "name": "_etherStoreAddress",
          "type": "address"
        }
      ],
      "payable": false,
      "stateMutability": "nonpayable",
      "type": "constructor"
    },
    {
      "payable": true,
      "stateMutability": "payable",
      "type": "fallback"
    },
    {
      "constant": false,
      "inputs": [],
      "name": "attackEtherStoreForTransfer",
      "outputs": [],
      "payable": true,
      "stateMutability": "payable",
      "type": "function"
    },
    {
      "constant": false,
      "inputs": [],
      "name": "collectEther",
      "outputs": [],
      "payable": false,
      "stateMutability": "nonpayable",
      "type": "function"
    },
    {
      "constant": false,
      "inputs": [
        {
          "name": "amount",
          "type": "uint256"
        }
      ],
      "name": "transfer",
      "outputs": [],
      "payable": true,
      "stateMutability": "payable",
      "type": "function"
    }
  ],
  "bytecode": "0x608060405234801561001057600080fd5b506040516020806103a283398101806040528101908080519060200190929190505050806000806101000a81548173ffffffffffffffffffffffffffffffffffffffff021916908373ffffffffffffffffffffffffffffffffffffffff1602179055505061031f806100836000396000f300608060405260043610610062576000357c0100000000000000000000000000000000000000000000000000000000900463ffffffff16806312514bba14610064578063733e349014610084578063acd2e6e51461008e578063ff11e1db146100e5575b005b610082600480360381019080803590602001909291905050506100fc565b005b61008c6100ff565b005b34801561009a57600080fd5b506100a361026e565b604051808273ffffffffffffffffffffffffffffffffffffffff1673ffffffffffffffffffffffffffffffffffffffff16815260200191505060405180910390f35b3480156100f157600080fd5b506100fa610293565b005b50565b670de0b6b3a7640000341015151561011657600080fd5b6000809054906101000a900473ffffffffffffffffffffffffffffffffffffffff1673ffffffffffffffffffffffffffffffffffffffff1663e2c41dbc670de0b6b3a76400006040518263ffffffff167c01000000000000000000000000000000000000000000000000000000000281526004016000604051808303818588803b1580156101a357600080fd5b505af11580156101b7573d6000803e3d6000fd5b50505050506000809054906101000a900473ffffffffffffffffffffffffffffffffffffffff1673ffffffffffffffffffffffffffffffffffffffff166365749fad670de0b6b3a76400006040518263ffffffff167c010000000000000000000000000000000000000000000000000000000002815260040180828152602001915050600060405180830381600087803b15801561025457600080fd5b505af1158015610268573d6000803e3d6000fd5b50505050565b6000809054906101000a900473ffffffffffffffffffffffffffffffffffffffff1681565b3373ffffffffffffffffffffffffffffffffffffffff166108fc3073ffffffffffffffffffffffffffffffffffffffff16319081150290604051600060405180830381858888f193505050501580156102f0573d6000803e3d6000fd5b505600a165627a7a723058205dacba7271cff61a603b501ddcfd061d7720b51895363efb92dc418e19d555cf0029",
  "source": "import \"./EtherStore.sol\";\n\ncontract Attack {\n    EtherStore public etherStore;\n\n    // intialize the etherStore variable with the contract address\n    constructor(address _etherStoreAddress) {\n        etherStore = EtherStore(_etherStoreAddress);\n    }\n\n    function attackEtherStoreForTransfer() public payable {\n        // attack to the nearest ether\n        require(msg.value >= 1 ether);\n        etherStore.depositFunds.value(1 ether)();\n        // start the magic\n        etherStore.withdrawFundsByTransfer(1 ether);\n    }\n\n    function collectEther() public {\n        msg.sender.transfer(this.balance);\n    }\n\n    function transfer(uint amount) public payable {\n\n    }\n\n//    function transfer(uint amount) public {\n//\n//    }\n\n    // fallback function - where the magic happens\n    function () payable {\n//        if (etherStore.balance > 2 ether) {\n//            etherStore.withdrawFunds(1 ether);\n//        }\n    }\n}",
  "sourcePath": "/home/jacob/wanchain/contract_vule/contracts/AttackWithEmptyFB.sol",
  "compiler": {
    "name": "solc",
    "version": "0.4.25+commit.59dbf8f1.Emscripten.clang"
  },
  "schemaVersion": "3.0.19",
  "updatedAt": "2019-12-18T12:06:09.459Z",
  "devdoc": {
    "methods": {}
  },
  "userdoc": {
    "methods": {}
  }
}