{
  "contractName": "EtherStore",
  "abi": [
    {
      "constant": true,
      "inputs": [
        {
          "name": "",
          "type": "address"
        }
      ],
      "name": "lastWithdrawTime",
      "outputs": [
        {
          "name": "",
          "type": "uint256"
        }
      ],
      "payable": false,
      "stateMutability": "view",
      "type": "function"
    },
    {
      "constant": true,
      "inputs": [
        {
          "name": "",
          "type": "address"
        }
      ],
      "name": "balances",
      "outputs": [
        {
          "name": "",
          "type": "uint256"
        }
      ],
      "payable": false,
      "stateMutability": "view",
      "type": "function"
    },
    {
      "constant": true,
      "inputs": [],
      "name": "withdrawalLimit",
      "outputs": [
        {
          "name": "",
          "type": "uint256"
        }
      ],
      "payable": false,
      "stateMutability": "view",
      "type": "function"
    },
    {
      "constant": false,
      "inputs": [],
      "name": "depositFunds",
      "outputs": [],
      "payable": true,
      "stateMutability": "payable",
      "type": "function"
    },
    {
      "constant": false,
      "inputs": [
        {
          "name": "_weiToWithdraw",
          "type": "uint256"
        }
      ],
      "name": "withdrawFunds",
      "outputs": [],
      "payable": false,
      "stateMutability": "nonpayable",
      "type": "function"
    },
    {
      "constant": false,
      "inputs": [
        {
          "name": "_weiToWithdraw",
          "type": "uint256"
        }
      ],
      "name": "withdrawFundsByTransfer",
      "outputs": [],
      "payable": false,
      "stateMutability": "nonpayable",
      "type": "function"
    }
  ],
  "bytecode": "0x6080604052670de0b6b3a764000060005534801561001c57600080fd5b506104cd8061002c6000396000f300608060405260043610610078576000357c0100000000000000000000000000000000000000000000000000000000900463ffffffff1680631031ec311461007d578063155dd5ee146100d457806327e235e31461010157806365749fad146101585780637ddfe78d14610185578063e2c41dbc146101b0575b600080fd5b34801561008957600080fd5b506100be600480360381019080803573ffffffffffffffffffffffffffffffffffffffff1690602001909291905050506101ba565b6040518082815260200191505060405180910390f35b3480156100e057600080fd5b506100ff600480360381019080803590602001909291905050506101d2565b005b34801561010d57600080fd5b50610142600480360381019080803573ffffffffffffffffffffffffffffffffffffffff16906020019092919050505061034f565b6040518082815260200191505060405180910390f35b34801561016457600080fd5b5061018360048036038101908080359060200190929190505050610367565b005b34801561019157600080fd5b5061019a61044c565b6040518082815260200191505060405180910390f35b6101b8610452565b005b60016020528060005260406000206000915090505481565b80600260003373ffffffffffffffffffffffffffffffffffffffff1673ffffffffffffffffffffffffffffffffffffffff168152602001908152602001600020541015151561022057600080fd5b600054811115151561023157600080fd5b62093a80600160003373ffffffffffffffffffffffffffffffffffffffff1673ffffffffffffffffffffffffffffffffffffffff1681526020019081526020016000205401421015151561028457600080fd5b3373ffffffffffffffffffffffffffffffffffffffff168160405160006040518083038185875af19250505015156102bb57600080fd5b80600260003373ffffffffffffffffffffffffffffffffffffffff1673ffffffffffffffffffffffffffffffffffffffff1681526020019081526020016000206000828254039250508190555042600160003373ffffffffffffffffffffffffffffffffffffffff1673ffffffffffffffffffffffffffffffffffffffff1681526020019081526020016000208190555050565b60026020528060005260406000206000915090505481565b80600260003373ffffffffffffffffffffffffffffffffffffffff1673ffffffffffffffffffffffffffffffffffffffff16815260200190815260200160002054101515156103b557600080fd5b3373ffffffffffffffffffffffffffffffffffffffff166108fc829081150290604051600060405180830381858888f193505050501580156103fb573d6000803e3d6000fd5b5080600260003373ffffffffffffffffffffffffffffffffffffffff1673ffffffffffffffffffffffffffffffffffffffff1681526020019081526020016000206000828254039250508190555050565b60005481565b34600260003373ffffffffffffffffffffffffffffffffffffffff1673ffffffffffffffffffffffffffffffffffffffff168152602001908152602001600020600082825401925050819055505600a165627a7a7230582077f0fe33a55b6232a0074c87de9e034de59a9fac381075f8ce7be91893f418cb0029",
  "source": "contract EtherStore {\n\n    uint256 public withdrawalLimit = 1 ether;\n    mapping(address => uint256) public lastWithdrawTime;\n    mapping(address => uint256) public balances;\n\n    function depositFunds() public payable {\n        balances[msg.sender] += msg.value;\n    }\n\n    function withdrawFunds (uint256 _weiToWithdraw) public {\n        require(balances[msg.sender] >= _weiToWithdraw);\n        // limit the withdrawal\n        require(_weiToWithdraw <= withdrawalLimit);\n        // limit the time allowed to withdraw\n        require(now >= lastWithdrawTime[msg.sender] + 1 weeks);\n        require(msg.sender.call.value(_weiToWithdraw)());\n        balances[msg.sender] -= _weiToWithdraw;\n        lastWithdrawTime[msg.sender] = now;\n    }\n\n    function withdrawFundsByTransfer (uint256 _weiToWithdraw) public {\n        require(balances[msg.sender] >= _weiToWithdraw);\n        msg.sender.transfer(_weiToWithdraw);\n        balances[msg.sender] -= _weiToWithdraw;\n    }\n}",
  "sourcePath": "/home/jacob/wanchain/contract_vule/contracts/EtherStore.sol",
  "compiler": {
    "name": "solc",
    "version": "0.4.25+commit.59dbf8f1.Emscripten.clang"
  },
  "schemaVersion": "3.0.19",
  "updatedAt": "2019-12-18T12:06:09.460Z",
  "devdoc": {
    "methods": {}
  },
  "userdoc": {
    "methods": {}
  }
}